{
  "_format": "hh-sol-artifact-1",
  "contractName": "KissanCoins",
  "sourceName": "contracts/KissanCoins.sol",
  "abi": [
    {
      "inputs": [],
      "stateMutability": "nonpayable",
      "type": "constructor"
    },
    {
      "inputs": [
        {
          "internalType": "uint256",
          "name": "requested",
          "type": "uint256"
        },
        {
          "internalType": "uint256",
          "name": "available",
          "type": "uint256"
        }
      ],
      "name": "InsufficientBalance",
      "type": "error"
    },
    {
      "anonymous": false,
      "inputs": [
        {
          "indexed": false,
          "internalType": "address",
          "name": "reciver",
          "type": "address"
        },
        {
          "indexed": false,
          "internalType": "uint256",
          "name": "amount",
          "type": "uint256"
        }
      ],
      "name": "Sent",
      "type": "event"
    },
    {
      "inputs": [
        {
          "internalType": "address",
          "name": "",
          "type": "address"
        }
      ],
      "name": "balances",
      "outputs": [
        {
          "internalType": "uint256",
          "name": "",
          "type": "uint256"
        }
      ],
      "stateMutability": "view",
      "type": "function"
    },
    {
      "inputs": [
        {
          "internalType": "address",
          "name": "reciver",
          "type": "address"
        },
        {
          "internalType": "uint256",
          "name": "amount",
          "type": "uint256"
        }
      ],
      "name": "mint",
      "outputs": [],
      "stateMutability": "nonpayable",
      "type": "function"
    },
    {
      "inputs": [],
      "name": "minter",
      "outputs": [
        {
          "internalType": "address",
          "name": "",
          "type": "address"
        }
      ],
      "stateMutability": "view",
      "type": "function"
    },
    {
      "inputs": [
        {
          "internalType": "address",
          "name": "account",
          "type": "address"
        }
      ],
      "name": "showBalance",
      "outputs": [
        {
          "internalType": "uint256",
          "name": "",
          "type": "uint256"
        }
      ],
      "stateMutability": "view",
      "type": "function"
    },
    {
      "inputs": [
        {
          "internalType": "address",
          "name": "reciver",
          "type": "address"
        },
        {
          "internalType": "uint256",
          "name": "amount",
          "type": "uint256"
        }
      ],
      "name": "transferCoins",
      "outputs": [],
      "stateMutability": "nonpayable",
      "type": "function"
    }
  ],
  "bytecode": "0x608060405234801561001057600080fd5b50600080546001600160a01b03191633908117909155610031906064610036565b6100a4565b6000546001600160a01b0316331461004d57600080fd5b6001600160a01b0382166000908152600160205260408120805483929061007590849061007e565b90915550505050565b6000821982111561009f57634e487b7160e01b600052601160045260246000fd5b500190565b610322806100b36000396000f3fe608060405234801561001057600080fd5b50600436106100575760003560e01c8063075461721461005c57806327e235e31461008c5780632dba5cfa146100ba57806340c10f19146100cf5780639c080f5d146100e2575b600080fd5b60005461006f906001600160a01b031681565b6040516001600160a01b0390911681526020015b60405180910390f35b6100ac61009a36600461025b565b60016020526000908152604090205481565b604051908152602001610083565b6100cd6100c836600461027d565b61010b565b005b6100cd6100dd36600461027d565b6101f7565b6100ac6100f036600461025b565b6001600160a01b031660009081526001602052604090205490565b3360009081526001602052604090205481111561016057336000908152600160205260409081902054905163cf47918160e01b8152610157918391600401918252602082015260400190565b60405180910390fd5b336000908152600160205260408120805483929061017f9084906102bd565b90915550506001600160a01b038216600090815260016020526040812080548392906101ac9084906102d4565b9091555050604080516001600160a01b0384168152602081018390527f510ffb4dcab972ae9d2007a58e13f1b0881776d23cd8f5cc32f8c5be2dbf70d2910160405180910390a15050565b6000546001600160a01b0316331461020e57600080fd5b6001600160a01b038216600090815260016020526040812080548392906102369084906102d4565b90915550505050565b80356001600160a01b038116811461025657600080fd5b919050565b60006020828403121561026d57600080fd5b6102768261023f565b9392505050565b6000806040838503121561029057600080fd5b6102998361023f565b946020939093013593505050565b634e487b7160e01b600052601160045260246000fd5b6000828210156102cf576102cf6102a7565b500390565b600082198211156102e7576102e76102a7565b50019056fea2646970667358221220dc8f0f646bffd0b0f8ad57aed23435ffcb691a40e4dd34b27e607ad6ef23966d64736f6c63430008090033",
  "linkReferences": {},
  "deployedLinkReferences": {}
}